8=FIX.4.4|9=72|35=A|34=5|49=INITIATOR|52=20240103-11:25:35.155|56=ACCEPTOR|98=0|108=30|10=255|
8=FIX.4.4|9=72|35=A|34=5|49=ACCEPTOR|52=20240103-11:25:35.242|56=INITIATOR|98=0|108=30|10=252|
8=FIX.4.4|9=69|35=2|34=6|49=INITIATOR|52=20240103-11:25:35.248|56=ACCEPTOR|7=4|16=0|10=095|
8=FIX.4.4|9=84|35=D|34=7|49=INITIATOR|52=20240103-11:25:35.296|56=ACCEPTOR|11=12345|44=150.25|54=1|10=060|
8=FIX.4.4|9=84|35=D|34=6|49=ACCEPTOR|52=20240103-11:25:35.296|56=INITIATOR|11=12345|44=150.25|54=1|10=059|
8=FIX.4.4|9=79|35=5|34=8|49=INITIATOR|52=20240103-11:25:35.297|56=ACCEPTOR|58=Closing session|10=137|
8=FIX.4.4|9=79|35=5|34=7|49=ACCEPTOR|52=20240103-11:25:35.297|56=INITIATOR|58=Closing session|10=136|
8=FIX.4.4|9=118|35=3|34=9|49=INITIATOR|52=20240103-11:25:35.301|56=ACCEPTOR|45=6|58=Required tag missing, field=55|371=55|372=D|373=1|10=169|
8=FIX.4.4|9=73|35=A|34=10|49=INITIATOR|52=20240103-11:27:14.385|56=ACCEPTOR|98=0|108=30|10=048|
8=FIX.4.4|9=72|35=A|34=9|49=ACCEPTOR|52=20240103-11:27:14.439|56=INITIATOR|98=0|108=30|10=007|
8=FIX.4.4|9=70|35=2|34=11|49=INITIATOR|52=20240103-11:27:14.444|56=ACCEPTOR|7=4|16=0|10=128|
8=FIX.4.4|9=90|35=D|34=12|49=INITIATOR|52=20240103-11:27:14.490|56=ACCEPTOR|11=12345|44=150.25|54=1|58=a|10=108|
8=FIX.4.4|9=90|35=D|34=10|49=ACCEPTOR|52=20240103-11:27:14.490|56=INITIATOR|11=12345|44=150.25|54=1|58=a|10=106|
8=FIX.4.4|9=80|35=5|34=13|49=INITIATOR|52=20240103-11:27:14.491|56=ACCEPTOR|58=Closing session|10=168|
8=FIX.4.4|9=80|35=5|34=11|49=ACCEPTOR|52=20240103-11:27:14.492|56=INITIATOR|58=Closing session|10=167|
8=FIX.4.4|9=120|35=3|34=14|49=INITIATOR|52=20240103-11:27:14.502|56=ACCEPTOR|45=10|58=Required tag missing, field=55|371=55|372=D|373=1|10=251|
8=FIX.4.4|9=73|35=A|34=15|49=INITIATOR|52=20240103-11:31:33.051|56=ACCEPTOR|98=0|108=30|10=039|
8=FIX.4.4|9=73|35=A|34=13|49=ACCEPTOR|52=20240103-11:31:33.114|56=INITIATOR|98=0|108=30|10=037|
8=FIX.4.4|9=70|35=2|34=16|49=INITIATOR|52=20240103-11:31:33.123|56=ACCEPTOR|7=4|16=0|10=123|
8=FIX.4.4|9=95|35=D|34=17|49=INITIATOR|52=20240103-11:31:33.182|56=ACCEPTOR|11=12345|44=150.25|54=1|55=1|58=a|10=073|
8=FIX.4.4|9=95|35=D|34=14|49=ACCEPTOR|52=20240103-11:31:33.182|56=INITIATOR|11=12345|44=150.25|54=1|55=1|58=a|10=070|
8=FIX.4.4|9=80|35=5|34=18|49=INITIATOR|52=20240103-11:31:33.184|56=ACCEPTOR|58=Closing session|10=168|
8=FIX.4.4|9=80|35=5|34=15|49=ACCEPTOR|52=20240103-11:31:33.184|56=INITIATOR|58=Closing session|10=165|
8=FIX.4.4|9=120|35=3|34=19|49=INITIATOR|52=20240103-11:31:33.188|56=ACCEPTOR|45=14|58=Required tag missing, field=40|371=40|372=D|373=1|10=254|
8=FIX.4.4|9=73|35=A|34=20|49=INITIATOR|52=20240103-11:33:13.260|56=ACCEPTOR|98=0|108=30|10=037|
8=FIX.4.4|9=73|35=A|34=17|49=ACCEPTOR|52=20240103-11:33:13.314|56=INITIATOR|98=0|108=30|10=043|
8=FIX.4.4|9=70|35=2|34=21|49=INITIATOR|52=20240103-11:33:13.322|56=ACCEPTOR|7=4|16=0|10=120|
8=FIX.4.4|9=100|35=D|34=22|49=INITIATOR|52=20240103-11:33:13.376|56=ACCEPTOR|11=12345|40=1|44=150.25|54=1|55=1|58=a|10=064|
8=FIX.4.4|9=100|35=D|34=18|49=ACCEPTOR|52=20240103-11:33:13.376|56=INITIATOR|11=12345|40=1|44=150.25|54=1|55=1|58=a|10=069|
8=FIX.4.4|9=80|35=5|34=23|49=INITIATOR|52=20240103-11:33:13.378|56=ACCEPTOR|58=Closing session|10=169|
8=FIX.4.4|9=80|35=5|34=19|49=ACCEPTOR|52=20240103-11:33:13.378|56=INITIATOR|58=Closing session|10=174|
8=FIX.4.4|9=120|35=3|34=24|49=INITIATOR|52=20240103-11:33:13.378|56=ACCEPTOR|45=18|58=Required tag missing, field=60|371=60|372=D|373=1|10=003|
