8=FIX.4.4|9=72|35=A|34=2|49=INITIATOR|52=20240102-05:06:00.781|56=ACCEPTOR|98=0|108=30|10=250|
8=FIX.4.4|9=72|35=A|34=1|49=ACCEPTOR|52=20240102-05:06:00.813|56=INITIATOR|98=0|108=30|10=245|
8=FIX.4.4|9=69|35=2|34=2|49=ACCEPTOR|52=20240102-05:06:00.841|56=INITIATOR|7=1|16=0|10=080|
8=FIX.4.4|9=102|35=4|34=1|43=Y|49=INITIATOR|52=20240102-05:06:00.849|56=ACCEPTOR|122=20240102-05:06:00.849|36=3|123=Y|10=004|
8=FIX.4.4|9=60|35=0|34=3|49=ACCEPTOR|52=20240102-05:06:31.732|56=INITIATOR|10=206|
8=FIX.4.4|9=60|35=0|34=3|49=INITIATOR|52=20240102-05:06:31.733|56=ACCEPTOR|10=207|
8=FIX.4.4|9=60|35=0|34=4|49=ACCEPTOR|52=20240102-05:07:01.729|56=INITIATOR|10=211|
8=FIX.4.4|9=60|35=0|34=4|49=INITIATOR|52=20240102-05:07:01.742|56=ACCEPTOR|10=206|
8=FIX.4.4|9=60|35=0|34=5|49=ACCEPTOR|52=20240102-05:07:31.730|56=INITIATOR|10=207|
8=FIX.4.4|9=60|35=0|34=5|49=INITIATOR|52=20240102-05:07:31.776|56=ACCEPTOR|10=217|
8=FIX.4.4|9=72|35=A|34=7|49=INITIATOR|52=20240102-05:07:54.132|56=ACCEPTOR|98=0|108=30|10=255|
8=FIX.4.4|9=72|35=A|34=6|49=ACCEPTOR|52=20240102-05:07:54.136|56=INITIATOR|98=0|108=30|10=002|
8=FIX.4.4|9=69|35=2|34=7|49=ACCEPTOR|52=20240102-05:07:54.137|56=INITIATOR|7=6|16=0|10=098|
8=FIX.4.4|9=102|35=4|34=6|43=Y|49=INITIATOR|52=20240102-05:07:54.145|56=ACCEPTOR|122=20240102-05:07:54.145|36=8|123=Y|10=012|
8=FIX.4.4|9=60|35=0|34=8|49=ACCEPTOR|52=20240102-05:08:24.723|56=INITIATOR|10=215|
8=FIX.4.4|9=60|35=0|34=8|49=INITIATOR|52=20240102-05:08:24.725|56=ACCEPTOR|10=217|
8=FIX.4.4|9=60|35=0|34=9|49=ACCEPTOR|52=20240102-05:08:54.734|56=INITIATOR|10=221|
8=FIX.4.4|9=60|35=0|34=9|49=INITIATOR|52=20240102-05:08:54.737|56=ACCEPTOR|10=224|
8=FIX.4.4|9=61|35=0|34=10|49=ACCEPTOR|52=20240102-05:09:24.731|56=INITIATOR|10=001|
8=FIX.4.4|9=61|35=0|34=10|49=INITIATOR|52=20240102-05:09:24.733|56=ACCEPTOR|10=003|
8=FIX.4.4|9=73|35=A|34=12|49=INITIATOR|52=20240102-05:09:47.927|56=ACCEPTOR|98=0|108=30|10=060|
8=FIX.4.4|9=73|35=A|34=11|49=ACCEPTOR|52=20240102-05:09:47.931|56=INITIATOR|98=0|108=30|10=054|
8=FIX.4.4|9=71|35=2|34=12|49=ACCEPTOR|52=20240102-05:09:47.932|56=INITIATOR|7=11|16=0|10=186|
8=FIX.4.4|9=104|35=4|34=11|43=Y|49=INITIATOR|52=20240102-05:09:47.941|56=ACCEPTOR|122=20240102-05:09:47.941|36=13|123=Y|10=118|
8=FIX.4.4|9=61|35=0|34=13|49=ACCEPTOR|52=20240102-05:10:18.720|56=INITIATOR|10=253|
8=FIX.4.4|9=61|35=0|34=13|49=INITIATOR|52=20240102-05:10:18.722|56=ACCEPTOR|10=255|
8=FIX.4.4|9=61|35=0|34=14|49=ACCEPTOR|52=20240102-05:10:48.728|56=INITIATOR|10=009|
8=FIX.4.4|9=61|35=0|34=14|49=INITIATOR|52=20240102-05:10:48.730|56=ACCEPTOR|10=002|
8=FIX.4.4|9=61|35=0|34=15|49=ACCEPTOR|52=20240102-05:11:18.731|56=INITIATOR|10=002|
8=FIX.4.4|9=61|35=0|34=15|49=INITIATOR|52=20240102-05:11:18.733|56=ACCEPTOR|10=004|
8=FIX.4.4|9=61|35=0|34=16|49=ACCEPTOR|52=20240102-05:11:48.724|56=INITIATOR|10=008|
8=FIX.4.4|9=61|35=0|34=16|49=INITIATOR|52=20240102-05:11:48.726|56=ACCEPTOR|10=010|
8=FIX.4.4|9=61|35=0|34=17|49=ACCEPTOR|52=20240102-05:12:18.722|56=INITIATOR|10=005|
8=FIX.4.4|9=61|35=0|34=17|49=INITIATOR|52=20240102-05:12:18.724|56=ACCEPTOR|10=007|
8=FIX.4.4|9=61|35=0|34=18|49=ACCEPTOR|52=20240102-05:12:48.729|56=INITIATOR|10=016|
8=FIX.4.4|9=61|35=0|34=18|49=INITIATOR|52=20240102-05:12:48.731|56=ACCEPTOR|10=009|
8=FIX.4.4|9=61|35=0|34=19|49=ACCEPTOR|52=20240102-05:13:18.732|56=INITIATOR|10=009|
8=FIX.4.4|9=61|35=0|34=19|49=INITIATOR|52=20240102-05:13:18.733|56=ACCEPTOR|10=010|
8=FIX.4.4|9=61|35=0|34=20|49=INITIATOR|52=20240102-05:13:48.924|56=ACCEPTOR|10=007|
8=FIX.4.4|9=61|35=0|34=20|49=ACCEPTOR|52=20240102-05:13:48.926|56=INITIATOR|10=009|
8=FIX.4.4|9=61|35=0|34=21|49=INITIATOR|52=20240102-05:14:18.916|56=ACCEPTOR|10=007|
8=FIX.4.4|9=61|35=0|34=21|49=ACCEPTOR|52=20240102-05:14:18.918|56=INITIATOR|10=009|
8=FIX.4.4|9=73|35=A|34=23|49=INITIATOR|52=20240102-05:14:26.860|56=ACCEPTOR|98=0|108=30|10=051|
8=FIX.4.4|9=73|35=A|34=22|49=ACCEPTOR|52=20240102-05:14:26.865|56=INITIATOR|98=0|108=30|10=055|
8=FIX.4.4|9=71|35=2|34=23|49=ACCEPTOR|52=20240102-05:14:26.866|56=INITIATOR|7=22|16=0|10=189|
8=FIX.4.4|9=104|35=4|34=22|43=Y|49=INITIATOR|52=20240102-05:14:26.875|56=ACCEPTOR|122=20240102-05:14:26.874|36=24|123=Y|10=119|
8=FIX.4.4|9=73|35=A|34=25|49=INITIATOR|52=20240102-05:14:42.998|56=ACCEPTOR|98=0|108=30|10=063|
8=FIX.4.4|9=61|35=0|34=24|49=ACCEPTOR|52=20240102-05:14:57.730|56=INITIATOR|10=007|
8=FIX.4.4|9=61|35=0|34=24|49=INITIATOR|52=20240102-05:14:57.733|56=ACCEPTOR|10=010|
8=FIX.4.4|9=73|35=A|34=26|49=INITIATOR|52=20240102-05:15:05.314|56=ACCEPTOR|98=0|108=30|10=046|
8=FIX.4.4|9=73|35=A|34=25|49=ACCEPTOR|52=20240102-05:15:05.319|56=INITIATOR|98=0|108=30|10=050|
8=FIX.4.4|9=71|35=2|34=26|49=ACCEPTOR|52=20240102-05:15:05.320|56=INITIATOR|7=25|16=0|10=178|
8=FIX.4.4|9=104|35=4|34=25|43=Y|49=INITIATOR|52=20240102-05:15:05.328|56=ACCEPTOR|122=20240102-05:15:05.328|36=27|123=Y|10=108|
8=FIX.4.4|9=73|35=A|34=28|49=INITIATOR|52=20240102-05:15:20.054|56=ACCEPTOR|98=0|108=30|10=046|
8=FIX.4.4|9=73|35=A|34=31|49=INITIATOR|52=20240102-05:33:31.628|56=ACCEPTOR|98=0|108=30|10=049|
8=FIX.4.4|9=73|35=A|34=27|49=ACCEPTOR|52=20240102-05:33:31.651|56=INITIATOR|98=0|108=30|10=050|
8=FIX.4.4|9=71|35=2|34=28|49=ACCEPTOR|52=20240102-05:33:31.676|56=INITIATOR|7=27|16=0|10=195|
8=FIX.4.4|9=104|35=4|34=27|43=Y|49=INITIATOR|52=20240102-05:33:31.685|56=ACCEPTOR|122=20240102-05:33:31.685|36=30|123=Y|10=114|
8=FIX.4.4|9=119|35=D|34=30|43=Y|49=INITIATOR|52=20240102-05:33:31.684|56=ACCEPTOR|122=20240102-05:33:30.680|11=12345|44=150.25|55=AAPL|10=122|
8=FIX.4.4|9=104|35=4|34=31|43=Y|49=INITIATOR|52=20240102-05:33:31.686|56=ACCEPTOR|122=20240102-05:33:31.686|36=32|123=Y|10=113|
8=FIX.4.4|9=120|35=3|34=29|49=ACCEPTOR|52=20240102-05:33:31.713|56=INITIATOR|45=30|58=Required tag missing, field=54|371=54|372=D|373=1|10=003|
8=FIX.4.4|9=61|35=0|34=30|49=ACCEPTOR|52=20240102-05:34:02.387|56=INITIATOR|10=004|
8=FIX.4.4|9=61|35=0|34=32|49=INITIATOR|52=20240102-05:34:02.390|56=ACCEPTOR|10=000|
8=FIX.4.4|9=61|35=0|34=31|49=ACCEPTOR|52=20240102-05:34:32.382|56=INITIATOR|10=003|
8=FIX.4.4|9=61|35=0|34=33|49=INITIATOR|52=20240102-05:34:32.384|56=ACCEPTOR|10=007|
8=FIX.4.4|9=61|35=0|34=32|49=ACCEPTOR|52=20240102-05:35:02.384|56=INITIATOR|10=004|
8=FIX.4.4|9=61|35=0|34=34|49=INITIATOR|52=20240102-05:35:02.386|56=ACCEPTOR|10=008|
8=FIX.4.4|9=61|35=0|34=33|49=ACCEPTOR|52=20240102-05:35:32.391|56=INITIATOR|10=006|
8=FIX.4.4|9=61|35=0|34=35|49=INITIATOR|52=20240102-05:35:32.394|56=ACCEPTOR|10=011|
8=FIX.4.4|9=61|35=0|34=36|49=INITIATOR|52=20240102-05:36:02.629|56=ACCEPTOR|10=011|
8=FIX.4.4|9=61|35=0|34=34|49=ACCEPTOR|52=20240102-05:36:02.631|56=INITIATOR|10=002|
8=FIX.4.4|9=61|35=0|34=37|49=INITIATOR|52=20240102-05:36:32.627|56=ACCEPTOR|10=013|
8=FIX.4.4|9=61|35=0|34=35|49=ACCEPTOR|52=20240102-05:36:32.629|56=INITIATOR|10=013|
8=FIX.4.4|9=73|35=A|34=42|49=INITIATOR|52=20240102-05:37:35.285|56=ACCEPTOR|98=0|108=30|10=058|
8=FIX.4.4|9=73|35=A|34=45|49=INITIATOR|52=20240102-05:38:57.366|56=ACCEPTOR|98=0|108=30|10=066|
8=FIX.4.4|9=73|35=A|34=36|49=ACCEPTOR|52=20240102-05:38:57.389|56=INITIATOR|98=0|108=30|10=071|
8=FIX.4.4|9=71|35=2|34=37|49=ACCEPTOR|52=20240102-05:38:57.412|56=INITIATOR|7=38|16=0|10=198|
8=FIX.4.4|9=104|35=4|34=38|43=Y|49=INITIATOR|52=20240102-05:38:57.422|56=ACCEPTOR|122=20240102-05:38:57.422|36=39|123=Y|10=129|
8=FIX.4.4|9=119|35=D|34=39|43=Y|49=INITIATOR|52=20240102-05:38:57.421|56=ACCEPTOR|122=20240102-05:37:11.925|11=12345|44=150.25|55=AAPL|10=138|
8=FIX.4.4|9=104|35=4|34=40|43=Y|49=INITIATOR|52=20240102-05:38:57.423|56=ACCEPTOR|122=20240102-05:38:57.423|36=41|123=Y|10=117|
8=FIX.4.4|9=119|35=D|34=41|43=Y|49=INITIATOR|52=20240102-05:38:57.423|56=ACCEPTOR|122=20240102-05:37:34.327|11=12345|44=150.25|55=AAPL|10=134|
8=FIX.4.4|9=104|35=4|34=42|43=Y|49=INITIATOR|52=20240102-05:38:57.424|56=ACCEPTOR|122=20240102-05:38:57.423|36=44|123=Y|10=123|
8=FIX.4.4|9=119|35=D|34=44|43=Y|49=INITIATOR|52=20240102-05:38:57.423|56=ACCEPTOR|122=20240102-05:38:56.409|11=12345|44=150.25|55=AAPL|10=143|
8=FIX.4.4|9=104|35=4|34=45|43=Y|49=INITIATOR|52=20240102-05:38:57.424|56=ACCEPTOR|122=20240102-05:38:57.424|36=46|123=Y|10=129|
8=FIX.4.4|9=120|35=3|34=38|49=ACCEPTOR|52=20240102-05:38:57.449|56=INITIATOR|45=39|58=Required tag missing, field=54|371=54|372=D|373=1|10=031|
8=FIX.4.4|9=120|35=3|34=39|49=ACCEPTOR|52=20240102-05:38:57.450|56=INITIATOR|45=41|58=Required tag missing, field=54|371=54|372=D|373=1|10=017|
8=FIX.4.4|9=120|35=3|34=40|49=ACCEPTOR|52=20240102-05:38:57.450|56=INITIATOR|45=44|58=Required tag missing, field=54|371=54|372=D|373=1|10=012|
8=FIX.4.4|9=61|35=0|34=41|49=ACCEPTOR|52=20240102-05:39:28.140|56=INITIATOR|10=006|
8=FIX.4.4|9=61|35=0|34=46|49=INITIATOR|52=20240102-05:39:28.141|56=ACCEPTOR|10=012|
8=FIX.4.4|9=61|35=0|34=42|49=ACCEPTOR|52=20240102-05:39:58.136|56=INITIATOR|10=015|
8=FIX.4.4|9=61|35=0|34=47|49=INITIATOR|52=20240102-05:39:58.138|56=ACCEPTOR|10=022|
8=FIX.4.4|9=61|35=0|34=43|49=ACCEPTOR|52=20240102-05:40:28.145|56=INITIATOR|10=005|
8=FIX.4.4|9=61|35=0|34=48|49=INITIATOR|52=20240102-05:40:28.146|56=ACCEPTOR|10=011|
8=FIX.4.4|9=61|35=0|34=44|49=ACCEPTOR|52=20240102-05:40:58.147|56=INITIATOR|10=011|
8=FIX.4.4|9=61|35=0|34=49|49=INITIATOR|52=20240102-05:40:58.148|56=ACCEPTOR|10=017|
8=FIX.4.4|9=73|35=A|34=50|49=INITIATOR|52=20240102-05:41:15.021|56=ACCEPTOR|98=0|108=30|10=038|
8=FIX.4.4|9=73|35=A|34=51|49=INITIATOR|52=20240102-05:41:31.695|56=ACCEPTOR|98=0|108=30|10=054|
8=FIX.4.4|9=73|35=A|34=45|49=ACCEPTOR|52=20240102-05:41:31.727|56=INITIATOR|98=0|108=30|10=053|
8=FIX.4.4|9=71|35=2|34=46|49=ACCEPTOR|52=20240102-05:41:31.729|56=INITIATOR|7=50|16=0|10=189|
8=FIX.4.4|9=88|35=D|34=52|49=INITIATOR|52=20240102-05:41:31.754|56=ACCEPTOR|11=12345|44=150.25|55=AAPL|10=089|
8=FIX.4.4|9=88|35=D|34=47|49=ACCEPTOR|52=20240102-05:41:31.754|56=INITIATOR|11=12345|44=150.25|55=AAPL|10=093|
8=FIX.4.4|9=80|35=5|34=53|49=INITIATOR|52=20240102-05:41:31.754|56=ACCEPTOR|58=Closing session|10=171|
8=FIX.4.4|9=80|35=5|34=48|49=ACCEPTOR|52=20240102-05:41:31.754|56=INITIATOR|58=Closing session|10=175|
8=FIX.4.4|9=120|35=3|34=49|49=ACCEPTOR|52=20240102-05:41:31.756|56=INITIATOR|45=52|58=Required tag missing, field=54|371=54|372=D|373=1|10=015|
8=FIX.4.4|9=104|35=4|34=50|43=Y|49=INITIATOR|52=20240102-05:41:31.757|56=ACCEPTOR|122=20240102-05:41:31.757|36=52|123=Y|10=112|
8=FIX.4.4|9=119|35=D|34=52|43=Y|49=INITIATOR|52=20240102-05:41:31.756|56=ACCEPTOR|122=20240102-05:41:31.754|11=12345|44=150.25|55=AAPL|10=127|
8=FIX.4.4|9=104|35=4|34=53|43=Y|49=INITIATOR|52=20240102-05:41:31.758|56=ACCEPTOR|122=20240102-05:41:31.758|36=54|123=Y|10=119|
8=FIX.4.4|9=120|35=3|34=54|49=INITIATOR|52=20240102-05:41:31.758|56=ACCEPTOR|45=47|58=Required tag missing, field=54|371=54|372=D|373=1|10=017|
8=FIX.4.4|9=73|35=A|34=51|49=INITIATOR|52=20240102-05:41:45.018|56=ACCEPTOR|98=0|108=30|10=048|
8=FIX.4.4|9=103|35=5|34=50|49=ACCEPTOR|52=20240102-05:41:45.020|56=INITIATOR|58=Logon attempt when session is disabled|10=064|
8=FIX.4.4|9=61|35=5|34=52|49=INITIATOR|52=20240102-05:41:45.027|56=ACCEPTOR|10=009|
8=FIX.4.4|9=73|35=A|34=53|49=INITIATOR|52=20240102-05:42:20.687|56=ACCEPTOR|98=0|108=30|10=056|
8=FIX.4.4|9=73|35=A|34=51|49=ACCEPTOR|52=20240102-05:42:20.719|56=INITIATOR|98=0|108=30|10=050|
8=FIX.4.4|9=71|35=2|34=52|49=ACCEPTOR|52=20240102-05:42:20.721|56=INITIATOR|7=50|16=0|10=177|
8=FIX.4.4|9=71|35=2|34=54|49=INITIATOR|52=20240102-05:42:20.722|56=ACCEPTOR|7=50|16=0|10=180|
8=FIX.4.4|9=88|35=D|34=55|49=INITIATOR|52=20240102-05:42:20.746|56=ACCEPTOR|11=12345|44=150.25|55=AAPL|10=092|
8=FIX.4.4|9=80|35=5|34=56|49=INITIATOR|52=20240102-05:42:20.746|56=ACCEPTOR|58=Closing session|10=174|
8=FIX.4.4|9=88|35=D|34=53|49=ACCEPTOR|52=20240102-05:42:20.746|56=INITIATOR|11=12345|44=150.25|55=AAPL|10=090|
8=FIX.4.4|9=80|35=5|34=54|49=ACCEPTOR|52=20240102-05:42:20.746|56=INITIATOR|58=Closing session|10=172|
8=FIX.4.4|9=104|35=4|34=50|43=Y|49=INITIATOR|52=20240102-05:42:20.748|56=ACCEPTOR|122=20240102-05:42:20.748|36=55|123=Y|10=113|
8=FIX.4.4|9=119|35=D|34=55|43=Y|49=INITIATOR|52=20240102-05:42:20.748|56=ACCEPTOR|122=20240102-05:42:20.746|11=12345|44=150.25|55=AAPL|10=130|
8=FIX.4.4|9=104|35=4|34=50|43=Y|49=ACCEPTOR|52=20240102-05:42:20.748|56=INITIATOR|122=20240102-05:42:20.748|36=53|123=Y|10=111|
8=FIX.4.4|9=104|35=4|34=56|43=Y|49=INITIATOR|52=20240102-05:42:20.749|56=ACCEPTOR|122=20240102-05:42:20.749|36=57|123=Y|10=123|
8=FIX.4.4|9=119|35=D|34=53|43=Y|49=ACCEPTOR|52=20240102-05:42:20.748|56=INITIATOR|122=20240102-05:42:20.746|11=12345|44=150.25|55=AAPL|10=128|
8=FIX.4.4|9=104|35=4|34=54|43=Y|49=ACCEPTOR|52=20240102-05:42:20.749|56=INITIATOR|122=20240102-05:42:20.749|36=55|123=Y|10=119|
8=FIX.4.4|9=120|35=3|34=57|49=INITIATOR|52=20240102-05:42:20.750|56=ACCEPTOR|45=53|58=Required tag missing, field=54|371=54|372=D|373=1|10=008|
8=FIX.4.4|9=120|35=3|34=55|49=ACCEPTOR|52=20240102-05:42:20.750|56=INITIATOR|45=55|58=Required tag missing, field=54|371=54|372=D|373=1|10=008|
8=FIX.4.4|9=71|35=2|34=58|49=INITIATOR|52=20240102-05:42:20.753|56=ACCEPTOR|7=53|16=0|10=191|
8=FIX.4.4|9=72|35=A|34=1|49=INITIATOR|52=20240103-10:54:36.401|56=ACCEPTOR|98=0|108=30|10=247|
8=FIX.4.4|9=72|35=A|34=1|49=ACCEPTOR|52=20240103-10:54:36.478|56=INITIATOR|98=0|108=30|10=005|
8=FIX.4.4|9=87|35=D|34=2|49=INITIATOR|52=20240103-10:54:36.546|56=ACCEPTOR|11=12345|44=150.25|55=AAPL|10=040|
8=FIX.4.4|9=87|35=D|34=2|49=ACCEPTOR|52=20240103-10:54:36.546|56=INITIATOR|11=12345|44=150.25|55=AAPL|10=040|
8=FIX.4.4|9=79|35=5|34=3|49=INITIATOR|52=20240103-10:54:36.547|56=ACCEPTOR|58=Closing session|10=132|
8=FIX.4.4|9=79|35=5|34=3|49=ACCEPTOR|52=20240103-10:54:36.547|56=INITIATOR|58=Closing session|10=132|
8=FIX.4.4|9=118|35=3|34=4|49=INITIATOR|52=20240103-10:54:36.553|56=ACCEPTOR|45=2|58=Required tag missing, field=54|371=54|372=D|373=1|10=169|
8=FIX.4.4|9=118|35=3|34=4|49=ACCEPTOR|52=20240103-10:54:36.553|56=INITIATOR|45=2|58=Required tag missing, field=54|371=54|372=D|373=1|10=169|
8=FIX.4.4|9=72|35=A|34=8|49=INITIATOR|52=20240103-11:19:05.409|56=ACCEPTOR|98=0|108=30|10=004|
8=FIX.4.4|9=72|35=A|34=5|49=ACCEPTOR|52=20240103-11:19:05.476|56=INITIATOR|98=0|108=30|10=005|
8=FIX.4.4|9=69|35=2|34=6|49=ACCEPTOR|52=20240103-11:19:05.480|56=INITIATOR|7=5|16=0|10=094|
8=FIX.4.4|9=87|35=D|34=9|49=INITIATOR|52=20240103-11:19:05.530|56=ACCEPTOR|11=12345|44=150.25|55=AAPL|10=038|
8=FIX.4.4|9=87|35=D|34=7|49=ACCEPTOR|52=20240103-11:19:05.530|56=INITIATOR|11=12345|44=150.25|55=AAPL|10=036|
8=FIX.4.4|9=80|35=5|34=10|49=INITIATOR|52=20240103-11:19:05.531|56=ACCEPTOR|58=Closing session|10=161|
8=FIX.4.4|9=79|35=5|34=8|49=ACCEPTOR|52=20240103-11:19:05.531|56=INITIATOR|58=Closing session|10=128|
8=FIX.4.4|9=118|35=D|34=5|43=Y|49=INITIATOR|52=20240103-11:19:05.534|56=ACCEPTOR|122=20240103-10:59:32.067|11=12345|44=150.25|55=AAPL|10=078|
8=FIX.4.4|9=118|35=3|34=9|49=ACCEPTOR|52=20240103-11:19:05.535|56=INITIATOR|45=9|58=Required tag missing, field=54|371=54|372=D|373=1|10=179|
8=FIX.4.4|9=102|35=4|34=6|43=Y|49=INITIATOR|52=20240103-11:19:05.538|56=ACCEPTOR|122=20240103-11:19:05.538|36=7|123=Y|10=017|
8=FIX.4.4|9=118|35=D|34=7|43=Y|49=INITIATOR|52=20240103-11:19:05.535|56=ACCEPTOR|122=20240103-10:59:32.102|11=12345|44=150.25|55=AAPL|10=071|
8=FIX.4.4|9=102|35=4|34=8|43=Y|49=INITIATOR|52=20240103-11:19:05.540|56=ACCEPTOR|122=20240103-11:19:05.540|36=9|123=Y|10=007|
8=FIX.4.4|9=118|35=D|34=9|43=Y|49=INITIATOR|52=20240103-11:19:05.540|56=ACCEPTOR|122=20240103-11:19:05.530|11=12345|44=150.25|55=AAPL|10=071|
8=FIX.4.4|9=104|35=4|34=10|43=Y|49=INITIATOR|52=20240103-11:19:05.542|56=ACCEPTOR|122=20240103-11:19:05.541|36=11|123=Y|10=094|
8=FIX.4.4|9=119|35=3|34=11|49=INITIATOR|52=20240103-11:19:05.543|56=ACCEPTOR|45=7|58=Required tag missing, field=54|371=54|372=D|373=1|10=218|
