8=FIX.4.4|9=72|35=A|34=1|49=ACCEPTOR|52=20240103-11:20:13.027|56=INITIATOR|98=0|108=30|10=240|8=FIX.4.4|9=87|35=D|34=2|49=ACCEPTOR|52=20240103-11:20:13.078|56=INITIATOR|11=12345|44=150.25|55=AAPL|10=029|8=FIX.4.4|9=79|35=5|34=3|49=ACCEPTOR|52=20240103-11:20:13.083|56=INITIATOR|58=Closing session|10=116|8=FIX.4.4|9=118|35=3|34=4|49=ACCEPTOR|52=20240103-11:20:13.087|56=INITIATOR|45=2|58=Required tag missing, field=54|371=54|372=D|373=1|10=160|8=FIX.4.4|9=72|35=A|34=5|49=ACCEPTOR|52=20240103-11:25:35.242|56=INITIATOR|98=0|108=30|10=252|8=FIX.4.4|9=84|35=D|34=6|49=ACCEPTOR|52=20240103-11:25:35.296|56=INITIATOR|11=12345|44=150.25|54=1|10=059|8=FIX.4.4|9=79|35=5|34=7|49=ACCEPTOR|52=20240103-11:25:35.297|56=INITIATOR|58=Closing session|10=136|8=FIX.4.4|9=118|35=3|34=8|49=ACCEPTOR|52=20240103-11:25:35.307|56=INITIATOR|45=7|58=Required tag missing, field=55|371=55|372=D|373=1|10=175|8=FIX.4.4|9=72|35=A|34=9|49=ACCEPTOR|52=20240103-11:27:14.439|56=INITIATOR|98=0|108=30|10=007|8=FIX.4.4|9=90|35=D|34=10|49=ACCEPTOR|52=20240103-11:27:14.490|56=INITIATOR|11=12345|44=150.25|54=1|58=a|10=106|8=FIX.4.4|9=80|35=5|34=11|49=ACCEPTOR|52=20240103-11:27:14.492|56=INITIATOR|58=Closing session|10=167|8=FIX.4.4|9=120|35=3|34=12|49=ACCEPTOR|52=20240103-11:27:14.508|56=INITIATOR|45=12|58=Required tag missing, field=55|371=55|372=D|373=1|10=001|8=FIX.4.4|9=73|35=A|34=13|49=ACCEPTOR|52=20240103-11:31:33.114|56=INITIATOR|98=0|108=30|10=037|8=FIX.4.4|9=95|35=D|34=14|49=ACCEPTOR|52=20240103-11:31:33.182|56=INITIATOR|11=12345|44=150.25|54=1|55=1|58=a|10=070|8=FIX.4.4|9=80|35=5|34=15|49=ACCEPTOR|52=20240103-11:31:33.184|56=INITIATOR|58=Closing session|10=165|8=FIX.4.4|9=120|35=3|34=16|49=ACCEPTOR|52=20240103-11:31:33.199|56=INITIATOR|45=17|58=Required tag missing, field=40|371=40|372=D|373=1|10=000|8=FIX.4.4|9=73|35=A|34=17|49=ACCEPTOR|52=20240103-11:33:13.314|56=INITIATOR|98=0|108=30|10=043|8=FIX.4.4|9=100|35=D|34=18|49=ACCEPTOR|52=20240103-11:33:13.376|56=INITIATOR|11=12345|40=1|44=150.25|54=1|55=1|58=a|10=069|8=FIX.4.4|9=80|35=5|34=19|49=ACCEPTOR|52=20240103-11:33:13.378|56=INITIATOR|58=Closing session|10=174|8=FIX.4.4|9=120|35=3|34=20|49=ACCEPTOR|52=20240103-11:33:13.396|56=INITIATOR|45=22|58=Required tag missing, field=60|371=60|372=D|373=1|10=250|