8=FIX.4.4|9=72|35=A|34=1|49=ACCEPTOR|52=20240103-10:54:36.478|56=INITIATOR|98=0|108=30|10=005|8=FIX.4.4|9=87|35=D|34=2|49=ACCEPTOR|52=20240103-10:54:36.546|56=INITIATOR|11=12345|44=150.25|55=AAPL|10=040|8=FIX.4.4|9=79|35=5|34=3|49=ACCEPTOR|52=20240103-10:54:36.547|56=INITIATOR|58=Closing session|10=132|8=FIX.4.4|9=118|35=3|34=4|49=ACCEPTOR|52=20240103-10:54:36.553|56=INITIATOR|45=2|58=Required tag missing, field=54|371=54|372=D|373=1|10=169|8=FIX.4.4|9=72|35=A|34=5|49=ACCEPTOR|52=20240103-11:19:05.476|56=INITIATOR|98=0|108=30|10=005|8=FIX.4.4|9=69|35=2|34=6|49=ACCEPTOR|52=20240103-11:19:05.480|56=INITIATOR|7=5|16=0|10=094|8=FIX.4.4|9=87|35=D|34=7|49=ACCEPTOR|52=20240103-11:19:05.530|56=INITIATOR|11=12345|44=150.25|55=AAPL|10=036|8=FIX.4.4|9=79|35=5|34=8|49=ACCEPTOR|52=20240103-11:19:05.531|56=INITIATOR|58=Closing session|10=128|8=FIX.4.4|9=118|35=3|34=9|49=ACCEPTOR|52=20240103-11:19:05.535|56=INITIATOR|45=9|58=Required tag missing, field=54|371=54|372=D|373=1|10=179|