8=FIX.4.4|9=72|35=A|34=1|49=INITIATOR|52=20240103-10:54:36.401|56=ACCEPTOR|98=0|108=30|10=247|8=FIX.4.4|9=87|35=D|34=2|49=INITIATOR|52=20240103-10:54:36.546|56=ACCEPTOR|11=12345|44=150.25|55=AAPL|10=040|8=FIX.4.4|9=79|35=5|34=3|49=INITIATOR|52=20240103-10:54:36.547|56=ACCEPTOR|58=Closing session|10=132|8=FIX.4.4|9=118|35=3|34=4|49=INITIATOR|52=20240103-10:54:36.553|56=ACCEPTOR|45=2|58=Required tag missing, field=54|371=54|372=D|373=1|10=169|8=FIX.4.4|9=87|35=D|34=5|49=INITIATOR|52=20240103-10:59:32.067|56=ACCEPTOR|11=12345|44=150.25|55=AAPL|10=042|8=FIX.4.4|9=60|35=0|34=6|49=INITIATOR|52=20240103-10:59:32.101|56=ACCEPTOR|10=205|8=FIX.4.4|9=87|35=D|34=7|49=INITIATOR|52=20240103-10:59:32.102|56=ACCEPTOR|11=12345|44=150.25|55=AAPL|10=034|8=FIX.4.4|9=72|35=A|34=8|49=INITIATOR|52=20240103-11:19:05.409|56=ACCEPTOR|98=0|108=30|10=004|8=FIX.4.4|9=87|35=D|34=9|49=INITIATOR|52=20240103-11:19:05.530|56=ACCEPTOR|11=12345|44=150.25|55=AAPL|10=038|8=FIX.4.4|9=80|35=5|34=10|49=INITIATOR|52=20240103-11:19:05.531|56=ACCEPTOR|58=Closing session|10=161|8=FIX.4.4|9=119|35=3|34=11|49=INITIATOR|52=20240103-11:19:05.543|56=ACCEPTOR|45=7|58=Required tag missing, field=54|371=54|372=D|373=1|10=218|